{
  "contractName": "ERC165",
  "abi": [
    {
      "inputs": [],
      "stateMutability": "nonpayable",
      "type": "constructor"
    },
    {
      "inputs": [
        {
          "internalType": "bytes4",
          "name": "interfaceID",
          "type": "bytes4"
        }
      ],
      "name": "supportsInterface",
      "outputs": [
        {
          "internalType": "bool",
          "name": "",
          "type": "bool"
        }
      ],
      "stateMutability": "view",
      "type": "function"
    },
    {
      "inputs": [
        {
          "internalType": "bytes4",
          "name": "interfaceID",
          "type": "bytes4"
        }
      ],
      "name": "registerInterface",
      "outputs": [],
      "stateMutability": "nonpayable",
      "type": "function"
    }
  ],
  "bytecode": "0x608060405234801561001057600080fd5b5061003a7f01ffc9a7a5cef8baa21ed3c5c0d7e23accb804b619e9333b597f47a0d84076e261003f565b6100c2565b6001600160e01b0319808216900361009d5760405162461bcd60e51b815260206004820152601860248201527f45524331363520696e76616c696420696e746572666163650000000000000000604482015260640160405180910390fd5b6001600160e01b0319166000908152602081905260409020805460ff19166001179055565b61017b806100d16000396000f3fe608060405234801561001057600080fd5b50600436106100365760003560e01c806301ffc9a71461003b578063214cdb801461007c575b600080fd5b610068610049366004610114565b6001600160e01b03191660009081526020819052604090205460ff1690565b604051901515815260200160405180910390f35b61008f61008a366004610114565b610091565b005b6001600160e01b031980821690036100ef5760405162461bcd60e51b815260206004820152601860248201527f45524331363520696e76616c696420696e746572666163650000000000000000604482015260640160405180910390fd5b6001600160e01b0319166000908152602081905260409020805460ff19166001179055565b60006020828403121561012657600080fd5b81356001600160e01b03198116811461013e57600080fd5b939250505056fea26469706673582212202b5bd3ab6ae97951fb173058706b799c1b6102fd97b45412fd2c5a361b0165c464736f6c634300080e0033",
  "immutableReferences": {},
  "source": "// SPDX-License-Identifier: MIT\npragma solidity ^0.8.0;\n\nimport \"./interfaces/IERC165.sol\";\n\ncontract ERC165 is IERC165{\n    mapping(bytes4 => bool) private _supportedInterfaces;\n\n    constructor (){\n      registerInterface(bytes4(keccak256('supportsInterface(bytes4)')));\n    }\n\n    function supportsInterface(bytes4 interfaceID) override external view returns (bool){\n        return _supportedInterfaces[interfaceID];\n    }\n\n    function registerInterface(bytes4 interfaceID) public {\n        require(interfaceID != 0xffffffff, 'ERC165 invalid interface');\n        _supportedInterfaces[interfaceID] = true;\n    }\n}",
  "sourcePath": "/home/quanvu/Documents/nodejs/nft-marketplace-starter-kit/src/contracts/ERC165.sol",
  "compiler": {
    "name": "solc",
    "version": "0.8.14+commit.80d49f37.Emscripten.clang"
  },
  "schemaVersion": "3.4.7",
  "updatedAt": "2022-05-20T05:22:40.132Z",
  "devdoc": {
    "kind": "dev",
    "methods": {
      "supportsInterface(bytes4)": {
        "details": "Interface identification is specified in ERC-165. This function  uses less than 30,000 gas.",
        "params": {
          "interfaceID": "The interface identifier, as specified in ERC-165"
        },
        "returns": {
          "_0": "`true` if the contract implements `interfaceID` and  `interfaceID` is not 0xffffffff, `false` otherwise"
        }
      }
    },
    "version": 1
  },
  "userdoc": {
    "kind": "user",
    "methods": {
      "supportsInterface(bytes4)": {
        "notice": "Query if a contract implements an interface"
      }
    },
    "version": 1
  }
}