{
  "contractName": "ERC721Connector",
  "abi": [
    {
      "inputs": [
        {
          "internalType": "string",
          "name": "name",
          "type": "string"
        },
        {
          "internalType": "string",
          "name": "symbol",
          "type": "string"
        }
      ],
      "stateMutability": "nonpayable",
      "type": "constructor"
    },
    {
      "anonymous": false,
      "inputs": [
        {
          "indexed": true,
          "internalType": "address",
          "name": "_from",
          "type": "address"
        },
        {
          "indexed": true,
          "internalType": "address",
          "name": "_to",
          "type": "address"
        },
        {
          "indexed": true,
          "internalType": "uint256",
          "name": "_tokenId",
          "type": "uint256"
        }
      ],
      "name": "Transfer",
      "type": "event"
    },
    {
      "inputs": [
        {
          "internalType": "address",
          "name": "_owner",
          "type": "address"
        }
      ],
      "name": "balanceOf",
      "outputs": [
        {
          "internalType": "uint256",
          "name": "",
          "type": "uint256"
        }
      ],
      "stateMutability": "view",
      "type": "function"
    },
    {
      "inputs": [],
      "name": "name",
      "outputs": [
        {
          "internalType": "string",
          "name": "",
          "type": "string"
        }
      ],
      "stateMutability": "view",
      "type": "function"
    },
    {
      "inputs": [
        {
          "internalType": "uint256",
          "name": "_tokenId",
          "type": "uint256"
        }
      ],
      "name": "ownerOf",
      "outputs": [
        {
          "internalType": "address",
          "name": "",
          "type": "address"
        }
      ],
      "stateMutability": "view",
      "type": "function"
    },
    {
      "inputs": [
        {
          "internalType": "bytes4",
          "name": "interfaceID",
          "type": "bytes4"
        }
      ],
      "name": "registerInterface",
      "outputs": [],
      "stateMutability": "nonpayable",
      "type": "function"
    },
    {
      "inputs": [
        {
          "internalType": "bytes4",
          "name": "interfaceID",
          "type": "bytes4"
        }
      ],
      "name": "supportsInterface",
      "outputs": [
        {
          "internalType": "bool",
          "name": "",
          "type": "bool"
        }
      ],
      "stateMutability": "view",
      "type": "function"
    },
    {
      "inputs": [],
      "name": "symbol",
      "outputs": [
        {
          "internalType": "string",
          "name": "",
          "type": "string"
        }
      ],
      "stateMutability": "view",
      "type": "function"
    },
    {
      "inputs": [
        {
          "internalType": "uint256",
          "name": "_index",
          "type": "uint256"
        }
      ],
      "name": "tokenByIndex",
      "outputs": [
        {
          "internalType": "uint256",
          "name": "",
          "type": "uint256"
        }
      ],
      "stateMutability": "view",
      "type": "function"
    },
    {
      "inputs": [
        {
          "internalType": "address",
          "name": "_owner",
          "type": "address"
        },
        {
          "internalType": "uint256",
          "name": "_index",
          "type": "uint256"
        }
      ],
      "name": "tokenOfOwnerByIndex",
      "outputs": [
        {
          "internalType": "uint256",
          "name": "",
          "type": "uint256"
        }
      ],
      "stateMutability": "view",
      "type": "function"
    },
    {
      "inputs": [],
      "name": "totalSupply",
      "outputs": [
        {
          "internalType": "uint256",
          "name": "",
          "type": "uint256"
        }
      ],
      "stateMutability": "view",
      "type": "function"
    },
    {
      "inputs": [
        {
          "internalType": "address",
          "name": "_from",
          "type": "address"
        },
        {
          "internalType": "address",
          "name": "_to",
          "type": "address"
        },
        {
          "internalType": "uint256",
          "name": "_tokenId",
          "type": "uint256"
        }
      ],
      "name": "transferFrom",
      "outputs": [],
      "stateMutability": "payable",
      "type": "function"
    }
  ],
  "bytecode": "0x60806040523480156200001157600080fd5b5060405162000bbf38038062000bbf833981016040819052620000349162000296565b8151829082906200004d90600090602085019062000123565b5080516200006390600190602084019062000123565b505050620000977f01ffc9a7a5cef8baa21ed3c5c0d7e23accb804b619e9333b597f47a0d84076e26200009f60201b60201c565b50506200033c565b6001600160e01b03198082169003620000fe5760405162461bcd60e51b815260206004820152601860248201527f45524331363520696e76616c696420696e746572666163650000000000000000604482015260640160405180910390fd5b6001600160e01b0319166000908152600260205260409020805460ff19166001179055565b828054620001319062000300565b90600052602060002090601f016020900481019282620001555760008555620001a0565b82601f106200017057805160ff1916838001178555620001a0565b82800160010185558215620001a0579182015b82811115620001a057825182559160200191906001019062000183565b50620001ae929150620001b2565b5090565b5b80821115620001ae5760008155600101620001b3565b634e487b7160e01b600052604160045260246000fd5b600082601f830112620001f157600080fd5b81516001600160401b03808211156200020e576200020e620001c9565b604051601f8301601f19908116603f01168101908282118183101715620002395762000239620001c9565b816040528381526020925086838588010111156200025657600080fd5b600091505b838210156200027a57858201830151818301840152908201906200025b565b838211156200028c5760008385830101525b9695505050505050565b60008060408385031215620002aa57600080fd5b82516001600160401b0380821115620002c257600080fd5b620002d086838701620001df565b93506020850151915080821115620002e757600080fd5b50620002f685828601620001df565b9150509250929050565b600181811c908216806200031557607f821691505b6020821081036200033657634e487b7160e01b600052602260045260246000fd5b50919050565b610873806200034c6000396000f3fe6080604052600436106100915760003560e01c80632f745c59116100595780632f745c591461015b5780634f6ccce71461017b5780636352211e1461019b57806370a08231146101d357806395d89b41146101f357600080fd5b806301ffc9a71461009657806306fdde03146100e557806318160ddd14610107578063214cdb801461012657806323b872dd14610148575b600080fd5b3480156100a257600080fd5b506100d06100b1366004610672565b6001600160e01b03191660009081526002602052604090205460ff1690565b60405190151581526020015b60405180910390f35b3480156100f157600080fd5b506100fa610208565b6040516100dc91906106a3565b34801561011357600080fd5b506005545b6040519081526020016100dc565b34801561013257600080fd5b50610146610141366004610672565b61029a565b005b610146610156366004610714565b61031e565b34801561016757600080fd5b50610118610176366004610750565b61032e565b34801561018757600080fd5b5061011861019636600461077a565b6103d2565b3480156101a757600080fd5b506101bb6101b636600461077a565b610450565b6040516001600160a01b0390911681526020016100dc565b3480156101df57600080fd5b506101186101ee366004610793565b6104bb565b3480156101ff57600080fd5b506100fa61052e565b606060008054610217906107ae565b80601f0160208091040260200160405190810160405280929190818152602001828054610243906107ae565b80156102905780601f1061026557610100808354040283529160200191610290565b820191906000526020600020905b81548152906001019060200180831161027357829003601f168201915b5050505050905090565b6001600160e01b031980821690036102f95760405162461bcd60e51b815260206004820152601860248201527f45524331363520696e76616c696420696e74657266616365000000000000000060448201526064015b60405180910390fd5b6001600160e01b0319166000908152600260205260409020805460ff19166001179055565b61032983838361053d565b505050565b6001600160a01b03821660009081526007602052604081205482106103955760405162461bcd60e51b815260206004820152601c60248201527f6f776e657220696e646578206973206f7574206f6620626f756e64730000000060448201526064016102f0565b6001600160a01b03831660009081526007602052604090208054839081106103bf576103bf6107e2565b9060005260206000200154905092915050565b60006103dd60055490565b821061042b5760405162461bcd60e51b815260206004820152601a60248201527f54686520696e646578206973206f7574206f6620626f756e647300000000000060448201526064016102f0565b6005828154811061043e5761043e6107e2565b90600052602060002001549050919050565b6000818152600360205260408120546001600160a01b0316806104b55760405162461bcd60e51b815260206004820181905260248201527f4f776e6572206f66207468697320746f6b656e206973206e6f7420657869737460448201526064016102f0565b92915050565b6000816001600160a01b03811661050c5760405162461bcd60e51b81526020600482015260156024820152744572726f722041646472657373206973207a65726f60581b60448201526064016102f0565b6001600160a01b03831660009081526004602052604090205491505b50919050565b606060018054610217906107ae565b6001600160a01b03821661058a5760405162461bcd60e51b8152602060048201526014602482015273151bc81859191c995cdcc81b9bdd08195e1a5cdd60621b60448201526064016102f0565b826001600160a01b031661059d82610450565b6001600160a01b0316146105f35760405162461bcd60e51b815260206004820152601f60248201527f66726f6d2061646472657373206e6f74206f776e207468697320746f6b656e0060448201526064016102f0565b600081815260036020908152604080832080546001600160a01b0319166001600160a01b03871690811790915583526004909152812080546001929061063a90849061080e565b90915550506001600160a01b0383166000908152600460205260408120805460019290610668908490610826565b9091555050505050565b60006020828403121561068457600080fd5b81356001600160e01b03198116811461069c57600080fd5b9392505050565b600060208083528351808285015260005b818110156106d0578581018301518582016040015282016106b4565b818111156106e2576000604083870101525b50601f01601f1916929092016040019392505050565b80356001600160a01b038116811461070f57600080fd5b919050565b60008060006060848603121561072957600080fd5b610732846106f8565b9250610740602085016106f8565b9150604084013590509250925092565b6000806040838503121561076357600080fd5b61076c836106f8565b946020939093013593505050565b60006020828403121561078c57600080fd5b5035919050565b6000602082840312156107a557600080fd5b61069c826106f8565b600181811c908216806107c257607f821691505b60208210810361052857634e487b7160e01b600052602260045260246000fd5b634e487b7160e01b600052603260045260246000fd5b634e487b7160e01b600052601160045260246000fd5b60008219821115610821576108216107f8565b500190565b600082821015610838576108386107f8565b50039056fea26469706673582212207245840b158f47fb870126025276575b1bc78fff8302f59667a507ee94d61b7d64736f6c634300080e0033",
  "immutableReferences": {},
  "source": "// SPDX-License-Identifier: MIT\npragma solidity ^0.8.0;\nimport \"./ERC721Metadata.sol\";\nimport \"./ERC721Enumerable.sol\";\n\ncontract ERC721Connector is ERC721Metadata, ERC721Enumerable {\n  constructor(string memory name, string memory symbol) ERC721Metadata(name,symbol) {\n\n  }\n}",
  "sourcePath": "/home/quanvu/Documents/nodejs/nft-marketplace-starter-kit/src/contracts/ERC721Connector.sol",
  "compiler": {
    "name": "solc",
    "version": "0.8.14+commit.80d49f37.Emscripten.clang"
  },
  "schemaVersion": "3.4.7",
  "updatedAt": "2022-05-20T07:08:55.784Z",
  "devdoc": {
    "kind": "dev",
    "methods": {
      "balanceOf(address)": {
        "details": "NFTs assigned to the zero address are considered invalid, and this  function throws for queries about the zero address.",
        "params": {
          "_owner": "An address for whom to query the balance"
        },
        "returns": {
          "_0": "The number of NFTs owned by `_owner`, possibly zero"
        }
      },
      "ownerOf(uint256)": {
        "details": "NFTs assigned to zero address are considered invalid, and queries  about them do throw.",
        "params": {
          "_tokenId": "The identifier for an NFT"
        },
        "returns": {
          "_0": "The address of the owner of the NFT"
        }
      },
      "supportsInterface(bytes4)": {
        "details": "Interface identification is specified in ERC-165. This function  uses less than 30,000 gas.",
        "params": {
          "interfaceID": "The interface identifier, as specified in ERC-165"
        },
        "returns": {
          "_0": "`true` if the contract implements `interfaceID` and  `interfaceID` is not 0xffffffff, `false` otherwise"
        }
      },
      "tokenByIndex(uint256)": {
        "details": "Throws if `_index` >= `totalSupply()`.",
        "params": {
          "_index": "A counter less than `totalSupply()`"
        },
        "returns": {
          "_0": "The token identifier for the `_index`th NFT,  (sort order not specified)"
        }
      },
      "tokenOfOwnerByIndex(address,uint256)": {
        "details": "Throws if `_index` >= `balanceOf(_owner)` or if  `_owner` is the zero address, representing invalid NFTs.",
        "params": {
          "_index": "A counter less than `balanceOf(_owner)`",
          "_owner": "An address where we are interested in NFTs owned by them"
        },
        "returns": {
          "_0": "The token identifier for the `_index`th NFT assigned to `_owner`,   (sort order not specified)"
        }
      },
      "totalSupply()": {
        "returns": {
          "_0": "A count of valid NFTs tracked by this contract, where each one of  them has an assigned and queryable owner not equal to the zero address"
        }
      },
      "transferFrom(address,address,uint256)": {
        "details": "Throws unless `msg.sender` is the current owner, an authorized  operator, or the approved address for this NFT. Throws if `_from` is  not the current owner. Throws if `_to` is the zero address. Throws if  `_tokenId` is not a valid NFT.",
        "params": {
          "_from": "The current owner of the NFT",
          "_to": "The new owner",
          "_tokenId": "The NFT to transfer"
        }
      }
    },
    "version": 1
  },
  "userdoc": {
    "kind": "user",
    "methods": {
      "balanceOf(address)": {
        "notice": "Count all NFTs assigned to an owner"
      },
      "name()": {
        "notice": "A descriptive name for a collection of NFTs in this contract"
      },
      "ownerOf(uint256)": {
        "notice": "Find the owner of an NFT"
      },
      "supportsInterface(bytes4)": {
        "notice": "Query if a contract implements an interface"
      },
      "symbol()": {
        "notice": "An abbreviated name for NFTs in this contract"
      },
      "tokenByIndex(uint256)": {
        "notice": "Enumerate valid NFTs"
      },
      "tokenOfOwnerByIndex(address,uint256)": {
        "notice": "Enumerate NFTs assigned to an owner"
      },
      "totalSupply()": {
        "notice": "Count NFTs tracked by this contract"
      },
      "transferFrom(address,address,uint256)": {
        "notice": "Transfer ownership of an NFT -- THE CALLER IS RESPONSIBLE  TO CONFIRM THAT `_to` IS CAPABLE OF RECEIVING NFTS OR ELSE  THEY MAY BE PERMANENTLY LOST"
      }
    },
    "version": 1
  }
}