{
  "contractName": "ERC721",
  "abi": [
    {
      "anonymous": false,
      "inputs": [
        {
          "indexed": true,
          "internalType": "address",
          "name": "_from",
          "type": "address"
        },
        {
          "indexed": true,
          "internalType": "address",
          "name": "_to",
          "type": "address"
        },
        {
          "indexed": true,
          "internalType": "uint256",
          "name": "_tokenId",
          "type": "uint256"
        }
      ],
      "name": "Transfer",
      "type": "event"
    },
    {
      "inputs": [
        {
          "internalType": "bytes4",
          "name": "interfaceID",
          "type": "bytes4"
        }
      ],
      "name": "registerInterface",
      "outputs": [],
      "stateMutability": "nonpayable",
      "type": "function"
    },
    {
      "inputs": [
        {
          "internalType": "bytes4",
          "name": "interfaceID",
          "type": "bytes4"
        }
      ],
      "name": "supportsInterface",
      "outputs": [
        {
          "internalType": "bool",
          "name": "",
          "type": "bool"
        }
      ],
      "stateMutability": "view",
      "type": "function"
    },
    {
      "inputs": [
        {
          "internalType": "address",
          "name": "_owner",
          "type": "address"
        }
      ],
      "name": "balanceOf",
      "outputs": [
        {
          "internalType": "uint256",
          "name": "",
          "type": "uint256"
        }
      ],
      "stateMutability": "view",
      "type": "function"
    },
    {
      "inputs": [
        {
          "internalType": "uint256",
          "name": "_tokenId",
          "type": "uint256"
        }
      ],
      "name": "ownerOf",
      "outputs": [
        {
          "internalType": "address",
          "name": "",
          "type": "address"
        }
      ],
      "stateMutability": "view",
      "type": "function"
    },
    {
      "inputs": [
        {
          "internalType": "address",
          "name": "_from",
          "type": "address"
        },
        {
          "internalType": "address",
          "name": "_to",
          "type": "address"
        },
        {
          "internalType": "uint256",
          "name": "_tokenId",
          "type": "uint256"
        }
      ],
      "name": "transferFrom",
      "outputs": [],
      "stateMutability": "payable",
      "type": "function"
    }
  ],
  "bytecode": "0x608060405234801561001057600080fd5b5061003a7f01ffc9a7a5cef8baa21ed3c5c0d7e23accb804b619e9333b597f47a0d84076e261003f565b6100c2565b6001600160e01b0319808216900361009d5760405162461bcd60e51b815260206004820152601860248201527f45524331363520696e76616c696420696e746572666163650000000000000000604482015260640160405180910390fd5b6001600160e01b0319166000908152602081905260409020805460ff19166001179055565b610513806100d16000396000f3fe60806040526004361061004a5760003560e01c806301ffc9a71461004f578063214cdb801461009e57806323b872dd146100c05780636352211e146100d357806370a082311461010b575b600080fd5b34801561005b57600080fd5b5061008961006a3660046103db565b6001600160e01b03191660009081526020819052604090205460ff1690565b60405190151581526020015b60405180910390f35b3480156100aa57600080fd5b506100be6100b93660046103db565b610139565b005b6100be6100ce366004610428565b6101bd565b3480156100df57600080fd5b506100f36100ee366004610464565b6101cd565b6040516001600160a01b039091168152602001610095565b34801561011757600080fd5b5061012b61012636600461047d565b610238565b604051908152602001610095565b6001600160e01b031980821690036101985760405162461bcd60e51b815260206004820152601860248201527f45524331363520696e76616c696420696e74657266616365000000000000000060448201526064015b60405180910390fd5b6001600160e01b0319166000908152602081905260409020805460ff19166001179055565b6101c88383836102a6565b505050565b6000818152600160205260408120546001600160a01b0316806102325760405162461bcd60e51b815260206004820181905260248201527f4f776e6572206f66207468697320746f6b656e206973206e6f74206578697374604482015260640161018f565b92915050565b6000816001600160a01b0381166102895760405162461bcd60e51b81526020600482015260156024820152744572726f722041646472657373206973207a65726f60581b604482015260640161018f565b50506001600160a01b031660009081526002602052604090205490565b6001600160a01b0382166102f35760405162461bcd60e51b8152602060048201526014602482015273151bc81859191c995cdcc81b9bdd08195e1a5cdd60621b604482015260640161018f565b826001600160a01b0316610306826101cd565b6001600160a01b03161461035c5760405162461bcd60e51b815260206004820152601f60248201527f66726f6d2061646472657373206e6f74206f776e207468697320746f6b656e00604482015260640161018f565b600081815260016020818152604080842080546001600160a01b0319166001600160a01b0388169081179091558452600290915282208054919290916103a39084906104ae565b90915550506001600160a01b03831660009081526002602052604081208054600192906103d19084906104c6565b9091555050505050565b6000602082840312156103ed57600080fd5b81356001600160e01b03198116811461040557600080fd5b9392505050565b80356001600160a01b038116811461042357600080fd5b919050565b60008060006060848603121561043d57600080fd5b6104468461040c565b92506104546020850161040c565b9150604084013590509250925092565b60006020828403121561047657600080fd5b5035919050565b60006020828403121561048f57600080fd5b6104058261040c565b634e487b7160e01b600052601160045260246000fd5b600082198211156104c1576104c1610498565b500190565b6000828210156104d8576104d8610498565b50039056fea2646970667358221220f89c3ebc8173b1d9c89ccd719f9191d132bb823b8fcb045b8056fea534e9410464736f6c634300080e0033",
  "immutableReferences": {},
  "source": "// SPDX-License-Identifier: MIT\npragma solidity ^0.8.0;\n\nimport \"./ERC165.sol\";\nimport \"./interfaces/IERC721.sol\";\n\ncontract ERC721 is ERC165,IERC721 {\n  mapping(uint256 => address) private _tokenOwner;\n  mapping(address => uint256) private _ownedTokensCount;\n\n  // event Tranfer(address indexed from,address indexed to,uint256 indexed tokenId);\n\n  modifier addressNotZero (address checkAdd){\n    require(checkAdd != address(0),\n    'Error Address is zero');\n    _;\n  }\n  modifier tokenHasNotMint(uint256 tokenId){\n    require(_tokenOwner[tokenId] == address(0),\n    'Error This token has already mint');\n    _;\n  }\n  function _mint(address to, uint256 tokenId) internal virtual addressNotZero(to) tokenHasNotMint(tokenId){\n    _tokenOwner[tokenId] = to;\n    _ownedTokensCount[to] += 1;\n    emit Transfer(address(0), to, tokenId);\n  }\n  function balanceOf(address _owner) public view addressNotZero(_owner) returns (uint256){\n    uint256 _balance = _ownedTokensCount[_owner];\n    return _balance;\n  }\n  function ownerOf(uint256 _tokenId) public view returns (address){\n    address _owner = _tokenOwner[_tokenId];\n    require(_owner != address(0),'Owner of this token is not exist');\n    return _owner;\n  }\n  function _transferFrom(address _from, address _to, uint256 _tokenId) internal {\n    require(_to != address(0), 'To address not exist');\n    require(ownerOf(_tokenId) == _from,'from address not own this token');\n    _tokenOwner[_tokenId] = _to;\n    _ownedTokensCount[_to] += 1;\n    _ownedTokensCount[_from] -= 1;\n  }\n  function transferFrom(address _from, address _to, uint256 _tokenId) external payable {\n    _transferFrom(_from, _to, _tokenId);\n  }\n}",
  "sourcePath": "/home/quanvu/Documents/nodejs/nft-marketplace-starter-kit/src/contracts/ERC721.sol",
  "compiler": {
    "name": "solc",
    "version": "0.8.14+commit.80d49f37.Emscripten.clang"
  },
  "schemaVersion": "3.4.7",
  "updatedAt": "2022-05-20T05:22:40.138Z",
  "devdoc": {
    "kind": "dev",
    "methods": {
      "balanceOf(address)": {
        "details": "NFTs assigned to the zero address are considered invalid, and this  function throws for queries about the zero address.",
        "params": {
          "_owner": "An address for whom to query the balance"
        },
        "returns": {
          "_0": "The number of NFTs owned by `_owner`, possibly zero"
        }
      },
      "ownerOf(uint256)": {
        "details": "NFTs assigned to zero address are considered invalid, and queries  about them do throw.",
        "params": {
          "_tokenId": "The identifier for an NFT"
        },
        "returns": {
          "_0": "The address of the owner of the NFT"
        }
      },
      "supportsInterface(bytes4)": {
        "details": "Interface identification is specified in ERC-165. This function  uses less than 30,000 gas.",
        "params": {
          "interfaceID": "The interface identifier, as specified in ERC-165"
        },
        "returns": {
          "_0": "`true` if the contract implements `interfaceID` and  `interfaceID` is not 0xffffffff, `false` otherwise"
        }
      },
      "transferFrom(address,address,uint256)": {
        "details": "Throws unless `msg.sender` is the current owner, an authorized  operator, or the approved address for this NFT. Throws if `_from` is  not the current owner. Throws if `_to` is the zero address. Throws if  `_tokenId` is not a valid NFT.",
        "params": {
          "_from": "The current owner of the NFT",
          "_to": "The new owner",
          "_tokenId": "The NFT to transfer"
        }
      }
    },
    "version": 1
  },
  "userdoc": {
    "kind": "user",
    "methods": {
      "balanceOf(address)": {
        "notice": "Count all NFTs assigned to an owner"
      },
      "ownerOf(uint256)": {
        "notice": "Find the owner of an NFT"
      },
      "supportsInterface(bytes4)": {
        "notice": "Query if a contract implements an interface"
      },
      "transferFrom(address,address,uint256)": {
        "notice": "Transfer ownership of an NFT -- THE CALLER IS RESPONSIBLE  TO CONFIRM THAT `_to` IS CAPABLE OF RECEIVING NFTS OR ELSE  THEY MAY BE PERMANENTLY LOST"
      }
    },
    "version": 1
  }
}