{
  "contractName": "ERC721Enumerable",
  "abi": [
    {
      "anonymous": false,
      "inputs": [
        {
          "indexed": true,
          "internalType": "address",
          "name": "_from",
          "type": "address"
        },
        {
          "indexed": true,
          "internalType": "address",
          "name": "_to",
          "type": "address"
        },
        {
          "indexed": true,
          "internalType": "uint256",
          "name": "_tokenId",
          "type": "uint256"
        }
      ],
      "name": "Transfer",
      "type": "event"
    },
    {
      "inputs": [
        {
          "internalType": "address",
          "name": "_owner",
          "type": "address"
        }
      ],
      "name": "balanceOf",
      "outputs": [
        {
          "internalType": "uint256",
          "name": "",
          "type": "uint256"
        }
      ],
      "stateMutability": "view",
      "type": "function"
    },
    {
      "inputs": [
        {
          "internalType": "uint256",
          "name": "_tokenId",
          "type": "uint256"
        }
      ],
      "name": "ownerOf",
      "outputs": [
        {
          "internalType": "address",
          "name": "",
          "type": "address"
        }
      ],
      "stateMutability": "view",
      "type": "function"
    },
    {
      "inputs": [
        {
          "internalType": "bytes4",
          "name": "interfaceID",
          "type": "bytes4"
        }
      ],
      "name": "registerInterface",
      "outputs": [],
      "stateMutability": "nonpayable",
      "type": "function"
    },
    {
      "inputs": [
        {
          "internalType": "bytes4",
          "name": "interfaceID",
          "type": "bytes4"
        }
      ],
      "name": "supportsInterface",
      "outputs": [
        {
          "internalType": "bool",
          "name": "",
          "type": "bool"
        }
      ],
      "stateMutability": "view",
      "type": "function"
    },
    {
      "inputs": [
        {
          "internalType": "address",
          "name": "_from",
          "type": "address"
        },
        {
          "internalType": "address",
          "name": "_to",
          "type": "address"
        },
        {
          "internalType": "uint256",
          "name": "_tokenId",
          "type": "uint256"
        }
      ],
      "name": "transferFrom",
      "outputs": [],
      "stateMutability": "payable",
      "type": "function"
    },
    {
      "inputs": [],
      "name": "totalSupply",
      "outputs": [
        {
          "internalType": "uint256",
          "name": "",
          "type": "uint256"
        }
      ],
      "stateMutability": "view",
      "type": "function"
    },
    {
      "inputs": [
        {
          "internalType": "uint256",
          "name": "_index",
          "type": "uint256"
        }
      ],
      "name": "tokenByIndex",
      "outputs": [
        {
          "internalType": "uint256",
          "name": "",
          "type": "uint256"
        }
      ],
      "stateMutability": "view",
      "type": "function"
    },
    {
      "inputs": [
        {
          "internalType": "address",
          "name": "_owner",
          "type": "address"
        },
        {
          "internalType": "uint256",
          "name": "_index",
          "type": "uint256"
        }
      ],
      "name": "tokenOfOwnerByIndex",
      "outputs": [
        {
          "internalType": "uint256",
          "name": "",
          "type": "uint256"
        }
      ],
      "stateMutability": "view",
      "type": "function"
    }
  ],
  "bytecode": "0x608060405234801561001057600080fd5b5061003a7f01ffc9a7a5cef8baa21ed3c5c0d7e23accb804b619e9333b597f47a0d84076e261003f565b6100c2565b6001600160e01b0319808216900361009d5760405162461bcd60e51b815260206004820152601860248201527f45524331363520696e76616c696420696e746572666163650000000000000000604482015260640160405180910390fd5b6001600160e01b0319166000908152602081905260409020805460ff19166001179055565b6106f7806100d16000396000f3fe60806040526004361061007b5760003560e01c80632f745c591161004e5780632f745c59146101235780634f6ccce7146101435780636352211e1461016357806370a082311461019b57600080fd5b806301ffc9a71461008057806318160ddd146100cf578063214cdb80146100ee57806323b872dd14610110575b600080fd5b34801561008c57600080fd5b506100ba61009b36600461057f565b6001600160e01b03191660009081526020819052604090205460ff1690565b60405190151581526020015b60405180910390f35b3480156100db57600080fd5b506003545b6040519081526020016100c6565b3480156100fa57600080fd5b5061010e61010936600461057f565b6101bb565b005b61010e61011e3660046105cc565b61023f565b34801561012f57600080fd5b506100e061013e366004610608565b61024f565b34801561014f57600080fd5b506100e061015e366004610632565b6102f3565b34801561016f57600080fd5b5061018361017e366004610632565b610371565b6040516001600160a01b0390911681526020016100c6565b3480156101a757600080fd5b506100e06101b636600461064b565b6103dc565b6001600160e01b0319808216900361021a5760405162461bcd60e51b815260206004820152601860248201527f45524331363520696e76616c696420696e74657266616365000000000000000060448201526064015b60405180910390fd5b6001600160e01b0319166000908152602081905260409020805460ff19166001179055565b61024a83838361044a565b505050565b6001600160a01b03821660009081526005602052604081205482106102b65760405162461bcd60e51b815260206004820152601c60248201527f6f776e657220696e646578206973206f7574206f6620626f756e6473000000006044820152606401610211565b6001600160a01b03831660009081526005602052604090208054839081106102e0576102e0610666565b9060005260206000200154905092915050565b60006102fe60035490565b821061034c5760405162461bcd60e51b815260206004820152601a60248201527f54686520696e646578206973206f7574206f6620626f756e64730000000000006044820152606401610211565b6003828154811061035f5761035f610666565b90600052602060002001549050919050565b6000818152600160205260408120546001600160a01b0316806103d65760405162461bcd60e51b815260206004820181905260248201527f4f776e6572206f66207468697320746f6b656e206973206e6f742065786973746044820152606401610211565b92915050565b6000816001600160a01b03811661042d5760405162461bcd60e51b81526020600482015260156024820152744572726f722041646472657373206973207a65726f60581b6044820152606401610211565b50506001600160a01b031660009081526002602052604090205490565b6001600160a01b0382166104975760405162461bcd60e51b8152602060048201526014602482015273151bc81859191c995cdcc81b9bdd08195e1a5cdd60621b6044820152606401610211565b826001600160a01b03166104aa82610371565b6001600160a01b0316146105005760405162461bcd60e51b815260206004820152601f60248201527f66726f6d2061646472657373206e6f74206f776e207468697320746f6b656e006044820152606401610211565b600081815260016020818152604080842080546001600160a01b0319166001600160a01b038816908117909155845260029091528220805491929091610547908490610692565b90915550506001600160a01b03831660009081526002602052604081208054600192906105759084906106aa565b9091555050505050565b60006020828403121561059157600080fd5b81356001600160e01b0319811681146105a957600080fd5b9392505050565b80356001600160a01b03811681146105c757600080fd5b919050565b6000806000606084860312156105e157600080fd5b6105ea846105b0565b92506105f8602085016105b0565b9150604084013590509250925092565b6000806040838503121561061b57600080fd5b610624836105b0565b946020939093013593505050565b60006020828403121561064457600080fd5b5035919050565b60006020828403121561065d57600080fd5b6105a9826105b0565b634e487b7160e01b600052603260045260246000fd5b634e487b7160e01b600052601160045260246000fd5b600082198211156106a5576106a561067c565b500190565b6000828210156106bc576106bc61067c565b50039056fea264697066735822122069752d55f97ab21ccabe91bc01e0d5ade0f6ada25bda1477a370c2163db48de764736f6c634300080e0033",
  "immutableReferences": {},
  "source": "// SPDX-License-Identifier: MIT\npragma solidity ^0.8.0;\n\nimport \"./ERC721.sol\";\nimport \"./interfaces/IERC721Enumerable.sol\";\n\ncontract ERC721Enumerable is ERC721,IERC721Enumerable {\n  uint256[] private _allTokens;\n// map tokenId to index in _allTokens\n  mapping (uint256 => uint256) private _allTokenIndexs;\n  // map owner address to token id list\n  mapping (address => uint256[]) private _ownedTokens;\n  // map token id to index in owner token id list\n  mapping (uint256 => uint256) private _ownedTokensIndex;\n\n\n  function totalSupply() override public view returns (uint256){\n    return _allTokens.length;\n  }\n\n  function tokenByIndex(uint256 _index) override external view returns (uint256){\n    require(_index < totalSupply(),\"The index is out of bounds\");\n    return _allTokens[_index];\n  }\n\n  function tokenOfOwnerByIndex(address _owner, uint256 _index) override external view returns (uint256){\n    require(_index < _ownedTokens[_owner].length,'owner index is out of bounds');\n    return _ownedTokens[_owner][_index];\n  }\n\n  function _mint(address to, uint256 tokenId) internal override(ERC721) {\n    super._mint(to,tokenId);\n    _addTokenToAllTokenEnumeration(tokenId);\n    _addTokenToAllOwnerEnumeration(to,tokenId);\n  }\n\n  function _addTokenToAllTokenEnumeration(uint256 tokenId) private {\n    _allTokenIndexs[tokenId] = _allTokens.length;\n    _allTokens.push(tokenId);\n  }\n  function _addTokenToAllOwnerEnumeration(address to, uint256 tokenId) private {\n    _ownedTokensIndex[tokenId] = _ownedTokens[to].length;\n    _ownedTokens[to].push(tokenId);\n  }\n}",
  "sourcePath": "/home/quanvu/Documents/nodejs/nft-marketplace-starter-kit/src/contracts/ERC721Enumerable.sol",
  "compiler": {
    "name": "solc",
    "version": "0.8.14+commit.80d49f37.Emscripten.clang"
  },
  "schemaVersion": "3.4.7",
  "updatedAt": "2022-05-20T07:08:55.793Z",
  "devdoc": {
    "kind": "dev",
    "methods": {
      "balanceOf(address)": {
        "details": "NFTs assigned to the zero address are considered invalid, and this  function throws for queries about the zero address.",
        "params": {
          "_owner": "An address for whom to query the balance"
        },
        "returns": {
          "_0": "The number of NFTs owned by `_owner`, possibly zero"
        }
      },
      "ownerOf(uint256)": {
        "details": "NFTs assigned to zero address are considered invalid, and queries  about them do throw.",
        "params": {
          "_tokenId": "The identifier for an NFT"
        },
        "returns": {
          "_0": "The address of the owner of the NFT"
        }
      },
      "supportsInterface(bytes4)": {
        "details": "Interface identification is specified in ERC-165. This function  uses less than 30,000 gas.",
        "params": {
          "interfaceID": "The interface identifier, as specified in ERC-165"
        },
        "returns": {
          "_0": "`true` if the contract implements `interfaceID` and  `interfaceID` is not 0xffffffff, `false` otherwise"
        }
      },
      "tokenByIndex(uint256)": {
        "details": "Throws if `_index` >= `totalSupply()`.",
        "params": {
          "_index": "A counter less than `totalSupply()`"
        },
        "returns": {
          "_0": "The token identifier for the `_index`th NFT,  (sort order not specified)"
        }
      },
      "tokenOfOwnerByIndex(address,uint256)": {
        "details": "Throws if `_index` >= `balanceOf(_owner)` or if  `_owner` is the zero address, representing invalid NFTs.",
        "params": {
          "_index": "A counter less than `balanceOf(_owner)`",
          "_owner": "An address where we are interested in NFTs owned by them"
        },
        "returns": {
          "_0": "The token identifier for the `_index`th NFT assigned to `_owner`,   (sort order not specified)"
        }
      },
      "totalSupply()": {
        "returns": {
          "_0": "A count of valid NFTs tracked by this contract, where each one of  them has an assigned and queryable owner not equal to the zero address"
        }
      },
      "transferFrom(address,address,uint256)": {
        "details": "Throws unless `msg.sender` is the current owner, an authorized  operator, or the approved address for this NFT. Throws if `_from` is  not the current owner. Throws if `_to` is the zero address. Throws if  `_tokenId` is not a valid NFT.",
        "params": {
          "_from": "The current owner of the NFT",
          "_to": "The new owner",
          "_tokenId": "The NFT to transfer"
        }
      }
    },
    "version": 1
  },
  "userdoc": {
    "kind": "user",
    "methods": {
      "balanceOf(address)": {
        "notice": "Count all NFTs assigned to an owner"
      },
      "ownerOf(uint256)": {
        "notice": "Find the owner of an NFT"
      },
      "supportsInterface(bytes4)": {
        "notice": "Query if a contract implements an interface"
      },
      "tokenByIndex(uint256)": {
        "notice": "Enumerate valid NFTs"
      },
      "tokenOfOwnerByIndex(address,uint256)": {
        "notice": "Enumerate NFTs assigned to an owner"
      },
      "totalSupply()": {
        "notice": "Count NFTs tracked by this contract"
      },
      "transferFrom(address,address,uint256)": {
        "notice": "Transfer ownership of an NFT -- THE CALLER IS RESPONSIBLE  TO CONFIRM THAT `_to` IS CAPABLE OF RECEIVING NFTS OR ELSE  THEY MAY BE PERMANENTLY LOST"
      }
    },
    "version": 1
  }
}