{
  "contractName": "KryptoBirdz",
  "abi": [
    {
      "inputs": [],
      "stateMutability": "nonpayable",
      "type": "constructor"
    },
    {
      "anonymous": false,
      "inputs": [
        {
          "indexed": true,
          "internalType": "address",
          "name": "_from",
          "type": "address"
        },
        {
          "indexed": true,
          "internalType": "address",
          "name": "_to",
          "type": "address"
        },
        {
          "indexed": true,
          "internalType": "uint256",
          "name": "_tokenId",
          "type": "uint256"
        }
      ],
      "name": "Transfer",
      "type": "event"
    },
    {
      "inputs": [
        {
          "internalType": "address",
          "name": "_owner",
          "type": "address"
        }
      ],
      "name": "balanceOf",
      "outputs": [
        {
          "internalType": "uint256",
          "name": "",
          "type": "uint256"
        }
      ],
      "stateMutability": "view",
      "type": "function"
    },
    {
      "inputs": [
        {
          "internalType": "uint256",
          "name": "",
          "type": "uint256"
        }
      ],
      "name": "kryptoBirdz",
      "outputs": [
        {
          "internalType": "string",
          "name": "",
          "type": "string"
        }
      ],
      "stateMutability": "view",
      "type": "function"
    },
    {
      "inputs": [],
      "name": "name",
      "outputs": [
        {
          "internalType": "string",
          "name": "",
          "type": "string"
        }
      ],
      "stateMutability": "view",
      "type": "function"
    },
    {
      "inputs": [
        {
          "internalType": "uint256",
          "name": "_tokenId",
          "type": "uint256"
        }
      ],
      "name": "ownerOf",
      "outputs": [
        {
          "internalType": "address",
          "name": "",
          "type": "address"
        }
      ],
      "stateMutability": "view",
      "type": "function"
    },
    {
      "inputs": [
        {
          "internalType": "bytes4",
          "name": "interfaceID",
          "type": "bytes4"
        }
      ],
      "name": "registerInterface",
      "outputs": [],
      "stateMutability": "nonpayable",
      "type": "function"
    },
    {
      "inputs": [
        {
          "internalType": "bytes4",
          "name": "interfaceID",
          "type": "bytes4"
        }
      ],
      "name": "supportsInterface",
      "outputs": [
        {
          "internalType": "bool",
          "name": "",
          "type": "bool"
        }
      ],
      "stateMutability": "view",
      "type": "function"
    },
    {
      "inputs": [],
      "name": "symbol",
      "outputs": [
        {
          "internalType": "string",
          "name": "",
          "type": "string"
        }
      ],
      "stateMutability": "view",
      "type": "function"
    },
    {
      "inputs": [
        {
          "internalType": "uint256",
          "name": "_index",
          "type": "uint256"
        }
      ],
      "name": "tokenByIndex",
      "outputs": [
        {
          "internalType": "uint256",
          "name": "",
          "type": "uint256"
        }
      ],
      "stateMutability": "view",
      "type": "function"
    },
    {
      "inputs": [
        {
          "internalType": "address",
          "name": "_owner",
          "type": "address"
        },
        {
          "internalType": "uint256",
          "name": "_index",
          "type": "uint256"
        }
      ],
      "name": "tokenOfOwnerByIndex",
      "outputs": [
        {
          "internalType": "uint256",
          "name": "",
          "type": "uint256"
        }
      ],
      "stateMutability": "view",
      "type": "function"
    },
    {
      "inputs": [],
      "name": "totalSupply",
      "outputs": [
        {
          "internalType": "uint256",
          "name": "",
          "type": "uint256"
        }
      ],
      "stateMutability": "view",
      "type": "function"
    },
    {
      "inputs": [
        {
          "internalType": "address",
          "name": "_from",
          "type": "address"
        },
        {
          "internalType": "address",
          "name": "_to",
          "type": "address"
        },
        {
          "internalType": "uint256",
          "name": "_tokenId",
          "type": "uint256"
        }
      ],
      "name": "transferFrom",
      "outputs": [],
      "stateMutability": "payable",
      "type": "function"
    },
    {
      "inputs": [
        {
          "internalType": "string",
          "name": "_kryptoBirdz",
          "type": "string"
        }
      ],
      "name": "mint",
      "outputs": [],
      "stateMutability": "nonpayable",
      "type": "function"
    }
  ],
  "bytecode": "0x60806040523480156200001157600080fd5b50604080518082018252600b81526a25b93cb83a37a134b9323d60a91b60208083019182528351808501909452600684526525a124a9222d60d11b9084015281519192918391839162000067916000916200013d565b5080516200007d9060019060208401906200013d565b505050620000b17f01ffc9a7a5cef8baa21ed3c5c0d7e23accb804b619e9333b597f47a0d84076e2620000b960201b60201c565b50506200021f565b6001600160e01b03198082169003620001185760405162461bcd60e51b815260206004820152601860248201527f45524331363520696e76616c696420696e746572666163650000000000000000604482015260640160405180910390fd5b6001600160e01b0319166000908152600260205260409020805460ff19166001179055565b8280546200014b90620001e3565b90600052602060002090601f0160209004810192826200016f5760008555620001ba565b82601f106200018a57805160ff1916838001178555620001ba565b82800160010185558215620001ba579182015b82811115620001ba5782518255916020019190600101906200019d565b50620001c8929150620001cc565b5090565b5b80821115620001c85760008155600101620001cd565b600181811c90821680620001f857607f821691505b6020821081036200021957634e487b7160e01b600052602260045260246000fd5b50919050565b610ded806200022f6000396000f3fe6080604052600436106100a75760003560e01c80634f6ccce7116100645780634f6ccce7146101915780636352211e146101b157806370a08231146101e957806393ab6e561461020957806395d89b4114610229578063d85d3d271461023e57600080fd5b806301ffc9a7146100ac57806306fdde03146100fb57806318160ddd1461011d578063214cdb801461013c57806323b872dd1461015e5780632f745c5914610171575b600080fd5b3480156100b857600080fd5b506100e66100c7366004610afb565b6001600160e01b03191660009081526002602052604090205460ff1690565b60405190151581526020015b60405180910390f35b34801561010757600080fd5b5061011061025e565b6040516100f29190610b5c565b34801561012957600080fd5b506005545b6040519081526020016100f2565b34801561014857600080fd5b5061015c610157366004610afb565b6102f0565b005b61015c61016c366004610bab565b610374565b34801561017d57600080fd5b5061012e61018c366004610be7565b610384565b34801561019d57600080fd5b5061012e6101ac366004610c11565b610428565b3480156101bd57600080fd5b506101d16101cc366004610c11565b6104a6565b6040516001600160a01b0390911681526020016100f2565b3480156101f557600080fd5b5061012e610204366004610c2a565b610511565b34801561021557600080fd5b50610110610224366004610c11565b610584565b34801561023557600080fd5b50610110610630565b34801561024a57600080fd5b5061015c610259366004610c5b565b61063f565b60606000805461026d90610d0c565b80601f016020809104026020016040519081016040528092919081815260200182805461029990610d0c565b80156102e65780601f106102bb576101008083540402835291602001916102e6565b820191906000526020600020905b8154815290600101906020018083116102c957829003601f168201915b5050505050905090565b6001600160e01b0319808216900361034f5760405162461bcd60e51b815260206004820152601860248201527f45524331363520696e76616c696420696e74657266616365000000000000000060448201526064015b60405180910390fd5b6001600160e01b0319166000908152600260205260409020805460ff19166001179055565b61037f838383610752565b505050565b6001600160a01b03821660009081526007602052604081205482106103eb5760405162461bcd60e51b815260206004820152601c60248201527f6f776e657220696e646578206973206f7574206f6620626f756e6473000000006044820152606401610346565b6001600160a01b038316600090815260076020526040902080548390811061041557610415610d40565b9060005260206000200154905092915050565b600061043360055490565b82106104815760405162461bcd60e51b815260206004820152601a60248201527f54686520696e646578206973206f7574206f6620626f756e64730000000000006044820152606401610346565b6005828154811061049457610494610d40565b90600052602060002001549050919050565b6000818152600360205260408120546001600160a01b03168061050b5760405162461bcd60e51b815260206004820181905260248201527f4f776e6572206f66207468697320746f6b656e206973206e6f742065786973746044820152606401610346565b92915050565b6000816001600160a01b0381166105625760405162461bcd60e51b81526020600482015260156024820152744572726f722041646472657373206973207a65726f60581b6044820152606401610346565b6001600160a01b03831660009081526004602052604090205491505b50919050565b6009818154811061059457600080fd5b9060005260206000200160009150905080546105af90610d0c565b80601f01602080910402602001604051908101604052809291908181526020018280546105db90610d0c565b80156106285780601f106105fd57610100808354040283529160200191610628565b820191906000526020600020905b81548152906001019060200180831161060b57829003601f168201915b505050505081565b60606001805461026d90610d0c565b600a8160405161064f9190610d56565b9081526040519081900360200190205460ff16156106ba5760405162461bcd60e51b815260206004820152602260248201527f4572726f72202d204b727970746f426972647a20616c72656164792065786973604482015261747360f01b6064820152608401610346565b6009805460018101825560009190915281516106fd917f6e1540171b6c0c960b71a7020d9f60077f6af931a8bbf590da0223dacf75c7af01906020840190610a62565b5060095460009061071090600190610d88565b905061071c3382610887565b6001600a8360405161072e9190610d56565b908152604051908190036020019020805491151560ff199092169190911790555050565b6001600160a01b03821661079f5760405162461bcd60e51b8152602060048201526014602482015273151bc81859191c995cdcc81b9bdd08195e1a5cdd60621b6044820152606401610346565b826001600160a01b03166107b2826104a6565b6001600160a01b0316146108085760405162461bcd60e51b815260206004820152601f60248201527f66726f6d2061646472657373206e6f74206f776e207468697320746f6b656e006044820152606401610346565b600081815260036020908152604080832080546001600160a01b0319166001600160a01b03871690811790915583526004909152812080546001929061084f908490610d9f565b90915550506001600160a01b038316600090815260046020526040812080546001929061087d908490610d88565b9091555050505050565b6108918282610918565b6108d981600580546000838152600660205260408120829055600182018355919091527f036b6384b5eca791c62761152d0c79bb0604c104a5fb6f4eb0703f3154bb3db00155565b6001600160a01b039190911660009081526007602081815260408084208054868652600884529185208290559282526001810183559183529091200155565b816001600160a01b0381166109675760405162461bcd60e51b81526020600482015260156024820152744572726f722041646472657373206973207a65726f60581b6044820152606401610346565b60008281526003602052604090205482906001600160a01b0316156109d85760405162461bcd60e51b815260206004820152602160248201527f4572726f72205468697320746f6b656e2068617320616c7265616479206d696e6044820152601d60fa1b6064820152608401610346565b600083815260036020908152604080832080546001600160a01b0319166001600160a01b038916908117909155835260049091528120805460019290610a1f908490610d9f565b909155505060405183906001600160a01b038616906000907fddf252ad1be2c89b69c2b068fc378daa952ba7f163c4a11628f55a4df523b3ef908290a450505050565b828054610a6e90610d0c565b90600052602060002090601f016020900481019282610a905760008555610ad6565b82601f10610aa957805160ff1916838001178555610ad6565b82800160010185558215610ad6579182015b82811115610ad6578251825591602001919060010190610abb565b50610ae2929150610ae6565b5090565b5b80821115610ae25760008155600101610ae7565b600060208284031215610b0d57600080fd5b81356001600160e01b031981168114610b2557600080fd5b9392505050565b60005b83811015610b47578181015183820152602001610b2f565b83811115610b56576000848401525b50505050565b6020815260008251806020840152610b7b816040850160208701610b2c565b601f01601f19169190910160400192915050565b80356001600160a01b0381168114610ba657600080fd5b919050565b600080600060608486031215610bc057600080fd5b610bc984610b8f565b9250610bd760208501610b8f565b9150604084013590509250925092565b60008060408385031215610bfa57600080fd5b610c0383610b8f565b946020939093013593505050565b600060208284031215610c2357600080fd5b5035919050565b600060208284031215610c3c57600080fd5b610b2582610b8f565b634e487b7160e01b600052604160045260246000fd5b600060208284031215610c6d57600080fd5b813567ffffffffffffffff80821115610c8557600080fd5b818401915084601f830112610c9957600080fd5b813581811115610cab57610cab610c45565b604051601f8201601f19908116603f01168101908382118183101715610cd357610cd3610c45565b81604052828152876020848701011115610cec57600080fd5b826020860160208301376000928101602001929092525095945050505050565b600181811c90821680610d2057607f821691505b60208210810361057e57634e487b7160e01b600052602260045260246000fd5b634e487b7160e01b600052603260045260246000fd5b60008251610d68818460208701610b2c565b9190910192915050565b634e487b7160e01b600052601160045260246000fd5b600082821015610d9a57610d9a610d72565b500390565b60008219821115610db257610db2610d72565b50019056fea26469706673582212208031d62d185b1ac65e8abcc00fe2c9e0e4944493a0207e40c540f28e2bec479164736f6c634300080e0033",
  "immutableReferences": {},
  "source": "// SPDX-License-Identifier: MIT\npragma solidity ^0.8.0;\nimport './ERC721Connector.sol';\n\ncontract KryptoBirdz is ERC721Connector{\n\n  string[] public kryptoBirdz;\n\n  mapping(string => bool) _kryptoBirdzExists;\n\n  function mint(string memory _kryptoBirdz) public{\n    require(!_kryptoBirdzExists[_kryptoBirdz],\n    'Error - KryptoBirdz already exists');\n\n    kryptoBirdz.push(_kryptoBirdz);\n    uint _id = kryptoBirdz.length -1;\n\n    _mint(msg.sender, _id);\n    \n    _kryptoBirdzExists[_kryptoBirdz] = true;\n  }\n\n  constructor() ERC721Connector('KryptoBirdz','KBIRDZ'){\n    \n  }\n}",
  "sourcePath": "/home/quanvu/Documents/nodejs/nft-marketplace-starter-kit/src/contracts/KryptoBirdz.sol",
  "compiler": {
    "name": "solc",
    "version": "0.8.14+commit.80d49f37.Emscripten.clang"
  },
  "schemaVersion": "3.4.7",
  "updatedAt": "2022-05-20T07:08:55.817Z",
  "devdoc": {
    "kind": "dev",
    "methods": {
      "balanceOf(address)": {
        "details": "NFTs assigned to the zero address are considered invalid, and this  function throws for queries about the zero address.",
        "params": {
          "_owner": "An address for whom to query the balance"
        },
        "returns": {
          "_0": "The number of NFTs owned by `_owner`, possibly zero"
        }
      },
      "ownerOf(uint256)": {
        "details": "NFTs assigned to zero address are considered invalid, and queries  about them do throw.",
        "params": {
          "_tokenId": "The identifier for an NFT"
        },
        "returns": {
          "_0": "The address of the owner of the NFT"
        }
      },
      "supportsInterface(bytes4)": {
        "details": "Interface identification is specified in ERC-165. This function  uses less than 30,000 gas.",
        "params": {
          "interfaceID": "The interface identifier, as specified in ERC-165"
        },
        "returns": {
          "_0": "`true` if the contract implements `interfaceID` and  `interfaceID` is not 0xffffffff, `false` otherwise"
        }
      },
      "tokenByIndex(uint256)": {
        "details": "Throws if `_index` >= `totalSupply()`.",
        "params": {
          "_index": "A counter less than `totalSupply()`"
        },
        "returns": {
          "_0": "The token identifier for the `_index`th NFT,  (sort order not specified)"
        }
      },
      "tokenOfOwnerByIndex(address,uint256)": {
        "details": "Throws if `_index` >= `balanceOf(_owner)` or if  `_owner` is the zero address, representing invalid NFTs.",
        "params": {
          "_index": "A counter less than `balanceOf(_owner)`",
          "_owner": "An address where we are interested in NFTs owned by them"
        },
        "returns": {
          "_0": "The token identifier for the `_index`th NFT assigned to `_owner`,   (sort order not specified)"
        }
      },
      "totalSupply()": {
        "returns": {
          "_0": "A count of valid NFTs tracked by this contract, where each one of  them has an assigned and queryable owner not equal to the zero address"
        }
      },
      "transferFrom(address,address,uint256)": {
        "details": "Throws unless `msg.sender` is the current owner, an authorized  operator, or the approved address for this NFT. Throws if `_from` is  not the current owner. Throws if `_to` is the zero address. Throws if  `_tokenId` is not a valid NFT.",
        "params": {
          "_from": "The current owner of the NFT",
          "_to": "The new owner",
          "_tokenId": "The NFT to transfer"
        }
      }
    },
    "version": 1
  },
  "userdoc": {
    "kind": "user",
    "methods": {
      "balanceOf(address)": {
        "notice": "Count all NFTs assigned to an owner"
      },
      "name()": {
        "notice": "A descriptive name for a collection of NFTs in this contract"
      },
      "ownerOf(uint256)": {
        "notice": "Find the owner of an NFT"
      },
      "supportsInterface(bytes4)": {
        "notice": "Query if a contract implements an interface"
      },
      "symbol()": {
        "notice": "An abbreviated name for NFTs in this contract"
      },
      "tokenByIndex(uint256)": {
        "notice": "Enumerate valid NFTs"
      },
      "tokenOfOwnerByIndex(address,uint256)": {
        "notice": "Enumerate NFTs assigned to an owner"
      },
      "totalSupply()": {
        "notice": "Count NFTs tracked by this contract"
      },
      "transferFrom(address,address,uint256)": {
        "notice": "Transfer ownership of an NFT -- THE CALLER IS RESPONSIBLE  TO CONFIRM THAT `_to` IS CAPABLE OF RECEIVING NFTS OR ELSE  THEY MAY BE PERMANENTLY LOST"
      }
    },
    "version": 1
  }
}