{
  "contractName": "KryptoBirdz",
  "abi": [
    {
      "inputs": [],
      "stateMutability": "nonpayable",
      "type": "constructor"
    },
    {
      "anonymous": false,
      "inputs": [
        {
          "indexed": true,
          "internalType": "address",
          "name": "from",
          "type": "address"
        },
        {
          "indexed": true,
          "internalType": "address",
          "name": "to",
          "type": "address"
        },
        {
          "indexed": true,
          "internalType": "uint256",
          "name": "tokenId",
          "type": "uint256"
        }
      ],
      "name": "Tranfer",
      "type": "event"
    },
    {
      "inputs": [
        {
          "internalType": "uint256",
          "name": "",
          "type": "uint256"
        }
      ],
      "name": "kryptoBirdz",
      "outputs": [
        {
          "internalType": "string",
          "name": "",
          "type": "string"
        }
      ],
      "stateMutability": "view",
      "type": "function",
      "constant": true
    },
    {
      "inputs": [],
      "name": "name",
      "outputs": [
        {
          "internalType": "string",
          "name": "",
          "type": "string"
        }
      ],
      "stateMutability": "view",
      "type": "function",
      "constant": true
    },
    {
      "inputs": [],
      "name": "symbol",
      "outputs": [
        {
          "internalType": "string",
          "name": "",
          "type": "string"
        }
      ],
      "stateMutability": "view",
      "type": "function",
      "constant": true
    },
    {
      "inputs": [
        {
          "internalType": "string",
          "name": "_kryptoBirdz",
          "type": "string"
        }
      ],
      "name": "mint",
      "outputs": [],
      "stateMutability": "nonpayable",
      "type": "function"
    }
  ],
  "bytecode": "0x608060405234801561001057600080fd5b50604080518082018252600b81526a25b93cb83a37a134b9323d60a91b60208083019182528351808501909452600684526525a124a9222d60d11b9084015281519192918391839161006491600091610082565b508051610078906001906020840190610082565b5050505050610155565b82805461008e9061011b565b90600052602060002090601f0160209004810192826100b057600085556100f6565b82601f106100c957805160ff19168380011785556100f6565b828001600101855582156100f6579182015b828111156100f65782518255916020019190600101906100db565b50610102929150610106565b5090565b5b808211156101025760008155600101610107565b600181811c9082168061012f57607f821691505b60208210810361014f57634e487b7160e01b600052602260045260246000fd5b50919050565b61066e806101646000396000f3fe608060405234801561001057600080fd5b506004361061004c5760003560e01c806306fdde031461005157806393ab6e561461006f57806395d89b4114610082578063d85d3d271461008a575b600080fd5b61005961009f565b6040516100669190610489565b60405180910390f35b61005961007d3660046104bc565b610131565b6100596101dd565b61009d6100983660046104eb565b6101ec565b005b6060600080546100ae9061059c565b80601f01602080910402602001604051908101604052809291908181526020018280546100da9061059c565b80156101275780601f106100fc57610100808354040283529160200191610127565b820191906000526020600020905b81548152906001019060200180831161010a57829003601f168201915b5050505050905090565b6004818154811061014157600080fd5b90600052602060002001600091509050805461015c9061059c565b80601f01602080910402602001604051908101604052809291908181526020018280546101889061059c565b80156101d55780601f106101aa576101008083540402835291602001916101d5565b820191906000526020600020905b8154815290600101906020018083116101b857829003601f168201915b505050505081565b6060600180546100ae9061059c565b6005816040516101fc91906105d6565b9081526040519081900360200190205460ff161561026b5760405162461bcd60e51b815260206004820152602260248201527f4572726f72202d204b727970746f426972647a20616c72656164792065786973604482015261747360f01b606482015260840160405180910390fd5b6004805460018101825560009190915281516102ae917f8a35acfbc15ff81a39ae7d344fd709f28e8600b4aa8c65c6b64bfe7fe36bd19b019060208401906103c0565b506004546000906102c190600190610608565b90506102cd3382610303565b60016005836040516102df91906105d6565b908152604051908190036020019020805491151560ff199092169190911790555050565b816001600160a01b03811661031757600080fd5b60008281526002602052604090205482906001600160a01b03161561033b57600080fd5b600083815260026020908152604080832080546001600160a01b0319166001600160a01b03891690811790915583526003909152812080549161037d8361061f565b909155505060405183906001600160a01b038616906000907f5225eac2a7facfbeb099c00a4cc7c457701324f1fd84b84b14033f9e911374a4908290a450505050565b8280546103cc9061059c565b90600052602060002090601f0160209004810192826103ee5760008555610434565b82601f1061040757805160ff1916838001178555610434565b82800160010185558215610434579182015b82811115610434578251825591602001919060010190610419565b50610440929150610444565b5090565b5b808211156104405760008155600101610445565b60005b8381101561047457818101518382015260200161045c565b83811115610483576000848401525b50505050565b60208152600082518060208401526104a8816040850160208701610459565b601f01601f19169190910160400192915050565b6000602082840312156104ce57600080fd5b5035919050565b634e487b7160e01b600052604160045260246000fd5b6000602082840312156104fd57600080fd5b813567ffffffffffffffff8082111561051557600080fd5b818401915084601f83011261052957600080fd5b81358181111561053b5761053b6104d5565b604051601f8201601f19908116603f01168101908382118183101715610563576105636104d5565b8160405282815287602084870101111561057c57600080fd5b826020860160208301376000928101602001929092525095945050505050565b600181811c908216806105b057607f821691505b6020821081036105d057634e487b7160e01b600052602260045260246000fd5b50919050565b600082516105e8818460208701610459565b9190910192915050565b634e487b7160e01b600052601160045260246000fd5b60008282101561061a5761061a6105f2565b500390565b600060018201610631576106316105f2565b506001019056fea2646970667358221220f6ee8c55328cfb177f3cfefbfaca5c06bc7b26d6d721a4ceaf921203bf0c6a4664736f6c634300080d0033",
  "immutableReferences": {},
  "source": "// SPDX-License-Identifier: MIT\npragma solidity ^0.8.0;\nimport './ERC721Connector.sol';\n\ncontract KryptoBirdz is ERC721Connector{\n\n  string[] public kryptoBirdz;\n\n  mapping(string => bool) _kryptoBirdzExists;\n\n  function mint(string memory _kryptoBirdz) public{\n    require(!_kryptoBirdzExists[_kryptoBirdz],\n    'Error - KryptoBirdz already exists');\n\n    kryptoBirdz.push(_kryptoBirdz);\n    uint _id = kryptoBirdz.length -1;\n\n    _mint(msg.sender, _id);\n    \n    _kryptoBirdzExists[_kryptoBirdz] = true;\n  }\n\n  constructor() ERC721Connector('KryptoBirdz','KBIRDZ'){\n    \n  }\n}",
  "sourcePath": "/home/quanvu/Documents/nodejs/nft-marketplace-starter-kit/src/contracts/KryptoBirdz.sol",
  "compiler": {
    "name": "solc",
    "version": "0.8.13+commit.abaa5c0e.Emscripten.clang"
  },
  "schemaVersion": "3.4.7",
  "updatedAt": "2022-05-11T09:41:51.576Z",
  "networkType": "ethereum",
  "devdoc": {
    "kind": "dev",
    "methods": {},
    "version": 1
  },
  "userdoc": {
    "kind": "user",
    "methods": {},
    "version": 1
  }
}